{
  "_format": "hh-sol-artifact-1",
  "contractName": "DInterest",
  "sourceName": "contracts/DInterest.sol",
  "abi": [
    {
      "inputs": [
        {
          "internalType": "uint256",
          "name": "x",
          "type": "uint256"
        }
      ],
      "name": "PRBMathUD60x18__Exp2InputTooBig",
      "type": "error"
    },
    {
      "inputs": [
        {
          "internalType": "uint256",
          "name": "prod1",
          "type": "uint256"
        }
      ],
      "name": "PRBMath__MulDivFixedPointOverflow",
      "type": "error"
    },
    {
      "inputs": [
        {
          "internalType": "uint256",
          "name": "prod1",
          "type": "uint256"
        },
        {
          "internalType": "uint256",
          "name": "denominator",
          "type": "uint256"
        }
      ],
      "name": "PRBMath__MulDivOverflow",
      "type": "error"
    },
    {
      "anonymous": false,
      "inputs": [
        {
          "indexed": true,
          "internalType": "address",
          "name": "sender",
          "type": "address"
        },
        {
          "indexed": true,
          "internalType": "uint256",
          "name": "depositID",
          "type": "uint256"
        },
        {
          "indexed": false,
          "internalType": "uint256",
          "name": "depositAmount",
          "type": "uint256"
        },
        {
          "indexed": false,
          "internalType": "uint256",
          "name": "interestAmount",
          "type": "uint256"
        },
        {
          "indexed": false,
          "internalType": "uint256",
          "name": "feeAmount",
          "type": "uint256"
        },
        {
          "indexed": false,
          "internalType": "uint64",
          "name": "maturationTimestamp",
          "type": "uint64"
        }
      ],
      "name": "EDeposit",
      "type": "event"
    },
    {
      "anonymous": false,
      "inputs": [
        {
          "indexed": true,
          "internalType": "address",
          "name": "sender",
          "type": "address"
        },
        {
          "indexed": true,
          "internalType": "uint64",
          "name": "fundingID",
          "type": "uint64"
        },
        {
          "indexed": false,
          "internalType": "uint256",
          "name": "fundAmount",
          "type": "uint256"
        },
        {
          "indexed": false,
          "internalType": "uint256",
          "name": "tokenAmount",
          "type": "uint256"
        }
      ],
      "name": "EFund",
      "type": "event"
    },
    {
      "anonymous": false,
      "inputs": [
        {
          "indexed": true,
          "internalType": "uint256",
          "name": "fundingID",
          "type": "uint256"
        },
        {
          "indexed": false,
          "internalType": "uint256",
          "name": "interestAmount",
          "type": "uint256"
        },
        {
          "indexed": false,
          "internalType": "uint256",
          "name": "refundAmount",
          "type": "uint256"
        }
      ],
      "name": "EPayFundingInterest",
      "type": "event"
    },
    {
      "anonymous": false,
      "inputs": [
        {
          "indexed": true,
          "internalType": "address",
          "name": "sender",
          "type": "address"
        },
        {
          "indexed": true,
          "internalType": "uint64",
          "name": "depositID",
          "type": "uint64"
        },
        {
          "indexed": true,
          "internalType": "uint64",
          "name": "newDepositID",
          "type": "uint64"
        }
      ],
      "name": "ERolloverDeposit",
      "type": "event"
    },
    {
      "anonymous": false,
      "inputs": [
        {
          "indexed": true,
          "internalType": "address",
          "name": "sender",
          "type": "address"
        },
        {
          "indexed": true,
          "internalType": "string",
          "name": "paramName",
          "type": "string"
        },
        {
          "indexed": false,
          "internalType": "address",
          "name": "newValue",
          "type": "address"
        }
      ],
      "name": "ESetParamAddress",
      "type": "event"
    },
    {
      "anonymous": false,
      "inputs": [
        {
          "indexed": true,
          "internalType": "address",
          "name": "sender",
          "type": "address"
        },
        {
          "indexed": true,
          "internalType": "string",
          "name": "paramName",
          "type": "string"
        },
        {
          "indexed": false,
          "internalType": "uint256",
          "name": "newValue",
          "type": "uint256"
        }
      ],
      "name": "ESetParamUint",
      "type": "event"
    },
    {
      "anonymous": false,
      "inputs": [
        {
          "indexed": true,
          "internalType": "address",
          "name": "sender",
          "type": "address"
        },
        {
          "indexed": true,
          "internalType": "uint64",
          "name": "depositID",
          "type": "uint64"
        },
        {
          "indexed": false,
          "internalType": "uint256",
          "name": "depositAmount",
          "type": "uint256"
        },
        {
          "indexed": false,
          "internalType": "uint256",
          "name": "interestAmount",
          "type": "uint256"
        },
        {
          "indexed": false,
          "internalType": "uint256",
          "name": "feeAmount",
          "type": "uint256"
        }
      ],
      "name": "ETopupDeposit",
      "type": "event"
    },
    {
      "anonymous": false,
      "inputs": [
        {
          "indexed": true,
          "internalType": "address",
          "name": "sender",
          "type": "address"
        },
        {
          "indexed": true,
          "internalType": "uint256",
          "name": "depositID",
          "type": "uint256"
        },
        {
          "indexed": true,
          "internalType": "bool",
          "name": "early",
          "type": "bool"
        },
        {
          "indexed": false,
          "internalType": "uint256",
          "name": "virtualTokenAmount",
          "type": "uint256"
        },
        {
          "indexed": false,
          "internalType": "uint256",
          "name": "feeAmount",
          "type": "uint256"
        }
      ],
      "name": "EWithdraw",
      "type": "event"
    },
    {
      "anonymous": false,
      "inputs": [
        {
          "indexed": true,
          "internalType": "address",
          "name": "previousOwner",
          "type": "address"
        },
        {
          "indexed": true,
          "internalType": "address",
          "name": "newOwner",
          "type": "address"
        }
      ],
      "name": "OwnershipTransferred",
      "type": "event"
    },
    {
      "inputs": [],
      "name": "GlobalDepositCap",
      "outputs": [
        {
          "internalType": "uint256",
          "name": "",
          "type": "uint256"
        }
      ],
      "stateMutability": "view",
      "type": "function"
    },
    {
      "inputs": [],
      "name": "MaxDepositPeriod",
      "outputs": [
        {
          "internalType": "uint64",
          "name": "",
          "type": "uint64"
        }
      ],
      "stateMutability": "view",
      "type": "function"
    },
    {
      "inputs": [],
      "name": "MinDepositAmount",
      "outputs": [
        {
          "internalType": "uint256",
          "name": "",
          "type": "uint256"
        }
      ],
      "stateMutability": "view",
      "type": "function"
    },
    {
      "inputs": [
        {
          "internalType": "uint256",
          "name": "depositAmount",
          "type": "uint256"
        },
        {
          "internalType": "uint256",
          "name": "depositPeriodInSeconds",
          "type": "uint256"
        }
      ],
      "name": "calculateInterestAmount",
      "outputs": [
        {
          "internalType": "uint256",
          "name": "interestAmount",
          "type": "uint256"
        }
      ],
      "stateMutability": "nonpayable",
      "type": "function"
    },
    {
      "inputs": [],
      "name": "claimOwnership",
      "outputs": [],
      "stateMutability": "nonpayable",
      "type": "function"
    },
    {
      "inputs": [
        {
          "internalType": "uint64",
          "name": "depositID",
          "type": "uint64"
        },
        {
          "internalType": "uint256",
          "name": "newFeeRate",
          "type": "uint256"
        }
      ],
      "name": "decreaseFeeForDeposit",
      "outputs": [],
      "stateMutability": "nonpayable",
      "type": "function"
    },
    {
      "inputs": [
        {
          "internalType": "uint256",
          "name": "depositAmount",
          "type": "uint256"
        },
        {
          "internalType": "uint64",
          "name": "maturationTimestamp",
          "type": "uint64"
        },
        {
          "internalType": "uint256",
          "name": "minimumInterestAmount",
          "type": "uint256"
        },
        {
          "internalType": "string",
          "name": "uri",
          "type": "string"
        }
      ],
      "name": "deposit",
      "outputs": [
        {
          "internalType": "uint64",
          "name": "depositID",
          "type": "uint64"
        },
        {
          "internalType": "uint256",
          "name": "interestAmount",
          "type": "uint256"
        }
      ],
      "stateMutability": "nonpayable",
      "type": "function"
    },
    {
      "inputs": [
        {
          "internalType": "uint256",
          "name": "depositAmount",
          "type": "uint256"
        },
        {
          "internalType": "uint64",
          "name": "maturationTimestamp",
          "type": "uint64"
        }
      ],
      "name": "deposit",
      "outputs": [
        {
          "internalType": "uint64",
          "name": "depositID",
          "type": "uint64"
        },
        {
          "internalType": "uint256",
          "name": "interestAmount",
          "type": "uint256"
        }
      ],
      "stateMutability": "nonpayable",
      "type": "function"
    },
    {
      "inputs": [],
      "name": "depositNFT",
      "outputs": [
        {
          "internalType": "contract NFT",
          "name": "",
          "type": "address"
        }
      ],
      "stateMutability": "view",
      "type": "function"
    },
    {
      "inputs": [],
      "name": "depositsLength",
      "outputs": [
        {
          "internalType": "uint256",
          "name": "",
          "type": "uint256"
        }
      ],
      "stateMutability": "view",
      "type": "function"
    },
    {
      "inputs": [],
      "name": "feeModel",
      "outputs": [
        {
          "internalType": "contract IFeeModel",
          "name": "",
          "type": "address"
        }
      ],
      "stateMutability": "view",
      "type": "function"
    },
    {
      "inputs": [
        {
          "internalType": "uint64",
          "name": "depositID",
          "type": "uint64"
        },
        {
          "internalType": "uint256",
          "name": "fundAmount",
          "type": "uint256"
        },
        {
          "internalType": "uint256",
          "name": "minPrincipalFunded",
          "type": "uint256"
        }
      ],
      "name": "fund",
      "outputs": [
        {
          "internalType": "uint64",
          "name": "fundingID",
          "type": "uint64"
        },
        {
          "internalType": "uint256",
          "name": "fundingMultitokensMinted",
          "type": "uint256"
        },
        {
          "internalType": "uint256",
          "name": "actualFundAmount",
          "type": "uint256"
        },
        {
          "internalType": "uint256",
          "name": "principalFunded",
          "type": "uint256"
        }
      ],
      "stateMutability": "nonpayable",
      "type": "function"
    },
    {
      "inputs": [
        {
          "internalType": "uint64",
          "name": "depositID",
          "type": "uint64"
        },
        {
          "internalType": "uint256",
          "name": "fundAmount",
          "type": "uint256"
        }
      ],
      "name": "fund",
      "outputs": [
        {
          "internalType": "uint64",
          "name": "fundingID",
          "type": "uint64"
        },
        {
          "internalType": "uint256",
          "name": "fundingMultitokensMinted",
          "type": "uint256"
        },
        {
          "internalType": "uint256",
          "name": "actualFundAmount",
          "type": "uint256"
        },
        {
          "internalType": "uint256",
          "name": "principalFunded",
          "type": "uint256"
        }
      ],
      "stateMutability": "nonpayable",
      "type": "function"
    },
    {
      "inputs": [],
      "name": "fundingListLength",
      "outputs": [
        {
          "internalType": "uint256",
          "name": "",
          "type": "uint256"
        }
      ],
      "stateMutability": "view",
      "type": "function"
    },
    {
      "inputs": [],
      "name": "fundingMultitoken",
      "outputs": [
        {
          "internalType": "contract FundingMultitoken",
          "name": "",
          "type": "address"
        }
      ],
      "stateMutability": "view",
      "type": "function"
    },
    {
      "inputs": [
        {
          "internalType": "uint64",
          "name": "depositID",
          "type": "uint64"
        }
      ],
      "name": "getDeposit",
      "outputs": [
        {
          "components": [
            {
              "internalType": "uint256",
              "name": "virtualTokenTotalSupply",
              "type": "uint256"
            },
            {
              "internalType": "uint256",
              "name": "interestRate",
              "type": "uint256"
            },
            {
              "internalType": "uint256",
              "name": "feeRate",
              "type": "uint256"
            },
            {
              "internalType": "uint256",
              "name": "averageRecordedIncomeIndex",
              "type": "uint256"
            },
            {
              "internalType": "uint64",
              "name": "maturationTimestamp",
              "type": "uint64"
            },
            {
              "internalType": "uint64",
              "name": "fundingID",
              "type": "uint64"
            }
          ],
          "internalType": "struct DInterest.Deposit",
          "name": "",
          "type": "tuple"
        }
      ],
      "stateMutability": "view",
      "type": "function"
    },
    {
      "inputs": [
        {
          "internalType": "uint64",
          "name": "fundingID",
          "type": "uint64"
        }
      ],
      "name": "getFunding",
      "outputs": [
        {
          "components": [
            {
              "internalType": "uint64",
              "name": "depositID",
              "type": "uint64"
            },
            {
              "internalType": "uint64",
              "name": "lastInterestPayoutTimestamp",
              "type": "uint64"
            },
            {
              "internalType": "uint256",
              "name": "recordedMoneyMarketIncomeIndex",
              "type": "uint256"
            },
            {
              "internalType": "uint256",
              "name": "principalPerToken",
              "type": "uint256"
            }
          ],
          "internalType": "struct DInterest.Funding",
          "name": "",
          "type": "tuple"
        }
      ],
      "stateMutability": "view",
      "type": "function"
    },
    {
      "inputs": [
        {
          "internalType": "uint64",
          "name": "_MaxDepositPeriod",
          "type": "uint64"
        },
        {
          "internalType": "uint256",
          "name": "_MinDepositAmount",
          "type": "uint256"
        },
        {
          "internalType": "address",
          "name": "_feeModel",
          "type": "address"
        },
        {
          "internalType": "address",
          "name": "_interestModel",
          "type": "address"
        },
        {
          "internalType": "address",
          "name": "_interestOracle",
          "type": "address"
        },
        {
          "internalType": "address",
          "name": "_depositNFT",
          "type": "address"
        },
        {
          "internalType": "address",
          "name": "_fundingMultitoken",
          "type": "address"
        },
        {
          "internalType": "address",
          "name": "_mphMinter",
          "type": "address"
        }
      ],
      "name": "initialize",
      "outputs": [],
      "stateMutability": "nonpayable",
      "type": "function"
    },
    {
      "inputs": [],
      "name": "interestModel",
      "outputs": [
        {
          "internalType": "contract IInterestModel",
          "name": "",
          "type": "address"
        }
      ],
      "stateMutability": "view",
      "type": "function"
    },
    {
      "inputs": [],
      "name": "interestOracle",
      "outputs": [
        {
          "internalType": "contract IInterestOracle",
          "name": "",
          "type": "address"
        }
      ],
      "stateMutability": "view",
      "type": "function"
    },
    {
      "inputs": [],
      "name": "moneyMarket",
      "outputs": [
        {
          "internalType": "contract MoneyMarket",
          "name": "",
          "type": "address"
        }
      ],
      "stateMutability": "view",
      "type": "function"
    },
    {
      "inputs": [],
      "name": "mphMinter",
      "outputs": [
        {
          "internalType": "contract MPHMinter",
          "name": "",
          "type": "address"
        }
      ],
      "stateMutability": "view",
      "type": "function"
    },
    {
      "inputs": [
        {
          "internalType": "bytes[]",
          "name": "data",
          "type": "bytes[]"
        }
      ],
      "name": "multicall",
      "outputs": [
        {
          "internalType": "bytes[]",
          "name": "results",
          "type": "bytes[]"
        }
      ],
      "stateMutability": "nonpayable",
      "type": "function"
    },
    {
      "inputs": [],
      "name": "owner",
      "outputs": [
        {
          "internalType": "address",
          "name": "",
          "type": "address"
        }
      ],
      "stateMutability": "view",
      "type": "function"
    },
    {
      "inputs": [
        {
          "internalType": "uint64",
          "name": "fundingID",
          "type": "uint64"
        }
      ],
      "name": "payInterestToFunders",
      "outputs": [
        {
          "internalType": "uint256",
          "name": "interestAmount",
          "type": "uint256"
        }
      ],
      "stateMutability": "nonpayable",
      "type": "function"
    },
    {
      "inputs": [],
      "name": "pendingOwner",
      "outputs": [
        {
          "internalType": "address",
          "name": "",
          "type": "address"
        }
      ],
      "stateMutability": "view",
      "type": "function"
    },
    {
      "inputs": [
        {
          "internalType": "address",
          "name": "token",
          "type": "address"
        },
        {
          "internalType": "address",
          "name": "target",
          "type": "address"
        }
      ],
      "name": "rescue",
      "outputs": [],
      "stateMutability": "nonpayable",
      "type": "function"
    },
    {
      "inputs": [
        {
          "internalType": "uint64",
          "name": "depositID",
          "type": "uint64"
        },
        {
          "internalType": "uint64",
          "name": "maturationTimestamp",
          "type": "uint64"
        },
        {
          "internalType": "uint256",
          "name": "minimumInterestAmount",
          "type": "uint256"
        },
        {
          "internalType": "string",
          "name": "uri",
          "type": "string"
        }
      ],
      "name": "rolloverDeposit",
      "outputs": [
        {
          "internalType": "uint256",
          "name": "newDepositID",
          "type": "uint256"
        },
        {
          "internalType": "uint256",
          "name": "interestAmount",
          "type": "uint256"
        }
      ],
      "stateMutability": "nonpayable",
      "type": "function"
    },
    {
      "inputs": [
        {
          "internalType": "uint64",
          "name": "depositID",
          "type": "uint64"
        },
        {
          "internalType": "uint64",
          "name": "maturationTimestamp",
          "type": "uint64"
        }
      ],
      "name": "rolloverDeposit",
      "outputs": [
        {
          "internalType": "uint256",
          "name": "newDepositID",
          "type": "uint256"
        },
        {
          "internalType": "uint256",
          "name": "interestAmount",
          "type": "uint256"
        }
      ],
      "stateMutability": "nonpayable",
      "type": "function"
    },
    {
      "inputs": [
        {
          "internalType": "string",
          "name": "newURI",
          "type": "string"
        }
      ],
      "name": "setDepositNFTBaseURI",
      "outputs": [],
      "stateMutability": "nonpayable",
      "type": "function"
    },
    {
      "inputs": [
        {
          "internalType": "string",
          "name": "newURI",
          "type": "string"
        }
      ],
      "name": "setDepositNFTContractURI",
      "outputs": [],
      "stateMutability": "nonpayable",
      "type": "function"
    },
    {
      "inputs": [
        {
          "internalType": "address",
          "name": "newValue",
          "type": "address"
        }
      ],
      "name": "setFeeModel",
      "outputs": [],
      "stateMutability": "nonpayable",
      "type": "function"
    },
    {
      "inputs": [
        {
          "internalType": "uint256",
          "name": "newValue",
          "type": "uint256"
        }
      ],
      "name": "setGlobalDepositCap",
      "outputs": [],
      "stateMutability": "nonpayable",
      "type": "function"
    },
    {
      "inputs": [
        {
          "internalType": "address",
          "name": "newValue",
          "type": "address"
        }
      ],
      "name": "setInterestModel",
      "outputs": [],
      "stateMutability": "nonpayable",
      "type": "function"
    },
    {
      "inputs": [
        {
          "internalType": "address",
          "name": "newValue",
          "type": "address"
        }
      ],
      "name": "setInterestOracle",
      "outputs": [],
      "stateMutability": "nonpayable",
      "type": "function"
    },
    {
      "inputs": [
        {
          "internalType": "address",
          "name": "newValue",
          "type": "address"
        }
      ],
      "name": "setMPHMinter",
      "outputs": [],
      "stateMutability": "nonpayable",
      "type": "function"
    },
    {
      "inputs": [
        {
          "internalType": "uint64",
          "name": "newValue",
          "type": "uint64"
        }
      ],
      "name": "setMaxDepositPeriod",
      "outputs": [],
      "stateMutability": "nonpayable",
      "type": "function"
    },
    {
      "inputs": [
        {
          "internalType": "uint256",
          "name": "newValue",
          "type": "uint256"
        }
      ],
      "name": "setMinDepositAmount",
      "outputs": [],
      "stateMutability": "nonpayable",
      "type": "function"
    },
    {
      "inputs": [
        {
          "internalType": "address",
          "name": "newValue",
          "type": "address"
        }
      ],
      "name": "setRewards",
      "outputs": [],
      "stateMutability": "nonpayable",
      "type": "function"
    },
    {
      "inputs": [
        {
          "internalType": "address",
          "name": "recipient",
          "type": "address"
        }
      ],
      "name": "skimSurplus",
      "outputs": [],
      "stateMutability": "nonpayable",
      "type": "function"
    },
    {
      "inputs": [],
      "name": "stablecoin",
      "outputs": [
        {
          "internalType": "contract ERC20",
          "name": "",
          "type": "address"
        }
      ],
      "stateMutability": "view",
      "type": "function"
    },
    {
      "inputs": [],
      "name": "sumOfRecordedFundedPrincipalAmountDivRecordedIncomeIndex",
      "outputs": [
        {
          "internalType": "uint256",
          "name": "",
          "type": "uint256"
        }
      ],
      "stateMutability": "view",
      "type": "function"
    },
    {
      "inputs": [],
      "name": "surplus",
      "outputs": [
        {
          "internalType": "bool",
          "name": "isNegative",
          "type": "bool"
        },
        {
          "internalType": "uint256",
          "name": "surplusAmount",
          "type": "uint256"
        }
      ],
      "stateMutability": "nonpayable",
      "type": "function"
    },
    {
      "inputs": [
        {
          "internalType": "uint64",
          "name": "depositID",
          "type": "uint64"
        },
        {
          "internalType": "uint256",
          "name": "depositAmount",
          "type": "uint256"
        }
      ],
      "name": "topupDeposit",
      "outputs": [
        {
          "internalType": "uint256",
          "name": "interestAmount",
          "type": "uint256"
        }
      ],
      "stateMutability": "nonpayable",
      "type": "function"
    },
    {
      "inputs": [
        {
          "internalType": "uint64",
          "name": "depositID",
          "type": "uint64"
        },
        {
          "internalType": "uint256",
          "name": "depositAmount",
          "type": "uint256"
        },
        {
          "internalType": "uint256",
          "name": "minimumInterestAmount",
          "type": "uint256"
        }
      ],
      "name": "topupDeposit",
      "outputs": [
        {
          "internalType": "uint256",
          "name": "interestAmount",
          "type": "uint256"
        }
      ],
      "stateMutability": "nonpayable",
      "type": "function"
    },
    {
      "inputs": [],
      "name": "totalDeposit",
      "outputs": [
        {
          "internalType": "uint256",
          "name": "",
          "type": "uint256"
        }
      ],
      "stateMutability": "view",
      "type": "function"
    },
    {
      "inputs": [],
      "name": "totalFeeOwed",
      "outputs": [
        {
          "internalType": "uint256",
          "name": "",
          "type": "uint256"
        }
      ],
      "stateMutability": "view",
      "type": "function"
    },
    {
      "inputs": [],
      "name": "totalFundedPrincipalAmount",
      "outputs": [
        {
          "internalType": "uint256",
          "name": "",
          "type": "uint256"
        }
      ],
      "stateMutability": "view",
      "type": "function"
    },
    {
      "inputs": [],
      "name": "totalInterestOwed",
      "outputs": [
        {
          "internalType": "uint256",
          "name": "",
          "type": "uint256"
        }
      ],
      "stateMutability": "view",
      "type": "function"
    },
    {
      "inputs": [
        {
          "internalType": "address",
          "name": "newOwner",
          "type": "address"
        },
        {
          "internalType": "bool",
          "name": "direct",
          "type": "bool"
        },
        {
          "internalType": "bool",
          "name": "renounce",
          "type": "bool"
        }
      ],
      "name": "transferOwnership",
      "outputs": [],
      "stateMutability": "nonpayable",
      "type": "function"
    },
    {
      "inputs": [
        {
          "internalType": "uint64",
          "name": "depositID",
          "type": "uint64"
        },
        {
          "internalType": "uint256",
          "name": "virtualTokenAmount",
          "type": "uint256"
        },
        {
          "internalType": "bool",
          "name": "early",
          "type": "bool"
        }
      ],
      "name": "withdraw",
      "outputs": [
        {
          "internalType": "uint256",
          "name": "withdrawnStablecoinAmount",
          "type": "uint256"
        }
      ],
      "stateMutability": "nonpayable",
      "type": "function"
    }
  ],
  "bytecode": "0x608060405234801561001057600080fd5b50615c4d80620000216000396000f3fe608060405234801561001057600080fd5b50600436106102f15760003560e01c80638da5cb5b1161019d578063bc135d75116100e9578063e30c3978116100a2578063f154240a1161007c578063f154240a14610763578063f20b1c761461076b578063f6153ccd1461077e578063f8e1152a1461078757600080fd5b8063e30c397814610737578063e9cbd82214610748578063ec38a8621461075057600080fd5b8063bc135d75146106e4578063c016cfd6146106f7578063d2402b191461070a578063d372bc4414610713578063d3f8d66714610726578063d6d75f511461072f57600080fd5b806397ee114411610156578063a832806b11610130578063a832806b14610630578063ac165d7a14610643578063ac9650d814610656578063ae59a6b21461067657600080fd5b806397ee1144146105e25780639e64eee0146105f5578063a5a9504e1461061d57600080fd5b80638da5cb5b1461057c5780638f168c931461058d5780638f91a1df1461059657806393f52c85146105a9578063952543b4146105bc5780639530d77e146105cf57600080fd5b80634004ba081161025c5780635dc05d7f116102155780637d552ea6116101ef5780637d552ea6146104f55780637f2b0e4e1461050857806381eb05691461051157806386b8f9f11461052457600080fd5b80635dc05d7f146104bc57806367e3c4d4146104cf5780636e3f5d52146104e257600080fd5b80634004ba081461043657806347857296146104685780634e71e0c81461047b5780634fdf5d1d14610483578063593b150d146104965780635c53ba26146104a957600080fd5b80632125b984116102ae5780632125b98414610374578063257c932a14610387578063259fc70f146103c45780632a80cda3146103ef5780632fc082ff1461040257806331c3b1e61461042d57600080fd5b806301f2249b146102f657806304e5f21d1461030b578063078dfbe71461032757806308b856d71461033a57806313888565146103425780631e36489314610361575b600080fd5b6103096103043660046152cc565b61079a565b005b61031460a05481565b6040519081526020015b60405180910390f35b61030961033536600461533c565b61086e565b609a54610314565b61034a61097d565b60408051921515835260208301919091520161031e565b61031461036f366004615578565b610a0a565b61030961038236600461543e565b610a4c565b61039a610395366004615672565b610ade565b604080516001600160401b039095168552602085019390935291830152606082015260800161031e565b609c546103d7906001600160401b031681565b6040516001600160401b03909116815260200161031e565b6103096103fd36600461547d565b610b2d565b60a454610415906001600160a01b031681565b6040516001600160a01b03909116815260200161031e565b61031460a85481565b6104496104443660046154f9565b610bd2565b604080516001600160401b03909316835260208301919091520161031e565b61031461047636600461563e565b610c57565b610309610c9b565b610309610491366004615304565b610d59565b6103096104a43660046152cc565b610df3565b61039a6104b7366004615578565b610ed7565b60a654610415906001600160a01b031681565b60a554610415906001600160a01b031681565b6103096104f03660046152cc565b610f26565b6104496105033660046154ce565b610fb0565b610314609b5481565b61031461051f366004615672565b61100b565b61053761053236600461555e565b611041565b60405161031e919060006080820190506001600160401b0380845116835280602085015116602084015250604083015160408301526060830151606083015292915050565b6033546001600160a01b0316610415565b610314609f5481565b6103096105a436600461555e565b6110ef565b6103096105b736600461547d565b6111bc565b6103096105ca3660046155a1565b61120c565b6103146105dd36600461555e565b611296565b60a254610415906001600160a01b031681565b6106086106033660046156cd565b61134d565b6040805192835260208301919091520161031e565b61030961062b3660046152cc565b6113db565b60a754610415906001600160a01b031681565b60a354610415906001600160a01b031681565b610669610664366004615386565b611460565b60405161031e9190615797565b61068961068436600461555e565b61157f565b60405161031e9190600060c0820190508251825260208301516020830152604083015160408301526060830151606083015260808301516001600160401b0380821660808501528060a08601511660a0850152505092915050565b6103146106f23660046154ad565b611668565b61030961070536600461543e565b61179b565b610314609d5481565b610309610721366004615578565b6117f7565b61031460a15481565b6104156118f1565b6034546001600160a01b0316610415565b610415611973565b61030961075e3660046152cc565b6119b5565b609954610314565b6103096107793660046152cc565b611a91565b610314609e5481565b6106086107953660046156a4565b611b1c565b6033546001600160a01b031633146107cd5760405162461bcd60e51b81526004016107c490615888565b60405180910390fd5b6001600160a01b0381163b6107f45760405162461bcd60e51b81526004016107c490615982565b60a780546001600160a01b0319166001600160a01b0383161790556040516836b83426b4b73a32b960b91b81526009015b6040519081900381206001600160a01b03831682529033907f64b03eb8356730cffd396927eec0e9b1e0599498960e022df3dae35791c17cf5906020015b60405180910390a350565b6033546001600160a01b031633146108985760405162461bcd60e51b81526004016107c490615888565b811561095c576001600160a01b0383161515806108b25750805b6108f65760405162461bcd60e51b81526020600482015260156024820152744f776e61626c653a207a65726f206164647265737360581b60448201526064016107c4565b6033546040516001600160a01b038086169216907f8be0079c531659141344cd1fd0a4f28419497f9722a3daafe3b4186f6b6457e090600090a3603380546001600160a01b0385166001600160a01b031991821617909155603480549091169055505050565b603480546001600160a01b0319166001600160a01b0385161790555b505050565b600080610a0261098b6118f1565b6001600160a01b03166321c261206040518163ffffffff1660e01b8152600401602060405180830381600087803b1580156109c557600080fd5b505af11580156109d9573d6000803e3d6000fd5b505050506040513d601f19601f820116820180604052508101906109fd9190615495565b611b81565b915091509091565b600060026001541415610a2f5760405162461bcd60e51b81526004016107c49061594b565b6002600155610a413384846000611cb3565b600180559392505050565b6033546001600160a01b03163314610a765760405162461bcd60e51b81526004016107c490615888565b60a5546040516355f804b360e01b81526001600160a01b03909116906355f804b390610aa890859085906004016157f8565b600060405180830381600087803b158015610ac257600080fd5b505af1158015610ad6573d6000803e3d6000fd5b505050505050565b60008060008060026001541415610b075760405162461bcd60e51b81526004016107c49061594b565b6002600155610b1833888888611cd5565b60018055929a91995097509095509350505050565b6033546001600160a01b03163314610b575760405162461bcd60e51b81526004016107c490615888565b60008111610b775760405162461bcd60e51b81526004016107c4906158bd565b609d8190556040516f135a5b91195c1bdcda5d105b5bdd5b9d60821b81526010015b6040519081900381208282529033907ff37f82a82443ce2d0a9a47ee78cef1a46975e3f33782fcb8caf315626b73a3d490602001610863565b60008060026001541415610bf85760405162461bcd60e51b81526004016107c49061594b565b6002600181905550610c4533888860008989898080601f016020809104026020016040519081016040528093929190818152602001838380828437600092019190915250611d0692505050565b60018055909890975095505050505050565b600060026001541415610c7c5760405162461bcd60e51b81526004016107c49061594b565b6002600155610c8f338585856000611d31565b60018055949350505050565b6034546001600160a01b0316338114610cf65760405162461bcd60e51b815260206004820181905260248201527f4f776e61626c653a2063616c6c657220213d2070656e64696e67206f776e657260448201526064016107c4565b6033546040516001600160a01b038084169216907f8be0079c531659141344cd1fd0a4f28419497f9722a3daafe3b4186f6b6457e090600090a3603380546001600160a01b039092166001600160a01b0319928316179055603480549091169055565b610d638282611d86565b6040516370a0823160e01b815230600482015282906109789083906001600160a01b038416906370a082319060240160206040518083038186803b158015610daa57600080fd5b505afa158015610dbe573d6000803e3d6000fd5b505050506040513d601f19601f82011682018060405250810190610de29190615495565b6001600160a01b0384169190611db4565b6033546001600160a01b03163314610e1d5760405162461bcd60e51b81526004016107c490615888565b600080610e2861097d565b915091508161097857610e396118f1565b6001600160a01b0316632e1a7d4d826040518263ffffffff1660e01b8152600401610e6691815260200190565b602060405180830381600087803b158015610e8057600080fd5b505af1158015610e94573d6000803e3d6000fd5b505050506040513d601f19601f82011682018060405250810190610eb89190615495565b90506109788382610ec7611973565b6001600160a01b03169190611db4565b60008060008060026001541415610f005760405162461bcd60e51b81526004016107c49061594b565b6002600155610f123387876000611cd5565b600180559299919850965090945092505050565b6033546001600160a01b03163314610f505760405162461bcd60e51b81526004016107c490615888565b6001600160a01b0381163b610f775760405162461bcd60e51b81526004016107c490615982565b60a380546001600160a01b0319166001600160a01b0383161790556040516c1a5b9d195c995cdd135bd9195b609a1b8152600d01610825565b60008060026001541415610fd65760405162461bcd60e51b81526004016107c49061594b565b6002600181905550610ffc33858560008060405180602001604052806000815250611d06565b60018055909590945092505050565b6000600260015414156110305760405162461bcd60e51b81526004016107c49061594b565b6002600155610c8f33858585611cb3565b604080516080810182526000808252602082018190529181018290526060810191909152609a611072600184615b45565b6001600160401b03168154811061109957634e487b7160e01b600052603260045260246000fd5b600091825260209182902060408051608081018252600390930290910180546001600160401b038082168552600160401b9091041693830193909352600183015490820152600290910154606082015292915050565b6033546001600160a01b031633146111195760405162461bcd60e51b81526004016107c490615888565b6000816001600160401b0316116111425760405162461bcd60e51b81526004016107c4906158bd565b609c805467ffffffffffffffff19166001600160401b0383161790556040516f13585e11195c1bdcda5d14195c9a5bd960821b81526010016040519081900381206001600160401b03831682529033907ff37f82a82443ce2d0a9a47ee78cef1a46975e3f33782fcb8caf315626b73a3d490602001610863565b6033546001600160a01b031633146111e65760405162461bcd60e51b81526004016107c490615888565b60a88190556040516f0476c6f62616c4465706f7369744361760841b8152601001610b99565b600054610100900460ff166112275760005460ff161561122b565b303b155b6112475760405162461bcd60e51b81526004016107c49061583a565b600054610100900460ff16158015611269576000805461ffff19166101011790555b6112798989898989898989611e17565b801561128b576000805461ff00191690555b505050505050505050565b6000600260015414156112bb5760405162461bcd60e51b81526004016107c49061594b565b6002600155611343826112cc6118f1565b6001600160a01b03166321c261206040518163ffffffff1660e01b8152600401602060405180830381600087803b15801561130657600080fd5b505af115801561131a573d6000803e3d6000fd5b505050506040513d601f19601f8201168201806040525081019061133e9190615495565b611f23565b6001805592915050565b600080600260015414156113735760405162461bcd60e51b81526004016107c49061594b565b60026001819055506113be3388888888888080601f0160208091040260200160405190810160405280939291908181526020018383808284376000920191909152506122e292505050565b600180556001600160401b03919091169890975095505050505050565b6033546001600160a01b031633146114055760405162461bcd60e51b81526004016107c490615888565b6001600160a01b0381163b61142c5760405162461bcd60e51b81526004016107c490615982565b60a280546001600160a01b0319166001600160a01b03831617905560405167199959535bd9195b60c21b8152600801610825565b6060816001600160401b0381111561148857634e487b7160e01b600052604160045260246000fd5b6040519080825280602002602001820160405280156114bb57816020015b60608152602001906001900390816114a65790505b50905060005b8281101561157757611539308585848181106114ed57634e487b7160e01b600052603260045260246000fd5b90506020028101906114ff91906159a8565b8080601f01602080910402602001604051908101604052809392919081815260200183838082843760009201919091525061235d92505050565b82828151811061155957634e487b7160e01b600052603260045260246000fd5b6020026020010181905250808061156f90615b99565b9150506114c1565b505b92915050565b6115ca6040518060c001604052806000815260200160008152602001600081526020016000815260200160006001600160401b0316815260200160006001600160401b031681525090565b60996115d7600184615b45565b6001600160401b0316815481106115fe57634e487b7160e01b600052603260045260246000fd5b60009182526020918290206040805160c081018252600590930290910180548352600181015493830193909352600283015490820152600382015460608201526004909101546001600160401b038082166080840152600160401b9091041660a082015292915050565b60a454604080516385b3a93160e01b8152815160009384936001600160a01b03909116926385b3a931926004808301939282900301818787803b1580156116ae57600080fd5b505af11580156116c2573d6000803e3d6000fd5b505050506040513d601f19601f820116820180604052508101906116e69190615411565b9150506000806116f461097d565b60a35460405163684df1a760e11b8152600481018a905260248101899052604481018790528315156064820152608481018390529294509092506001600160a01b03169063d09be34e9060a40160206040518083038186803b15801561175957600080fd5b505afa15801561176d573d6000803e3d6000fd5b505050506040513d601f19601f820116820180604052508101906117919190615495565b9695505050505050565b6033546001600160a01b031633146117c55760405162461bcd60e51b81526004016107c490615888565b60a55460405163938e3d7b60e01b81526001600160a01b039091169063938e3d7b90610aa890859085906004016157f8565b6033546001600160a01b031633146118215760405162461bcd60e51b81526004016107c490615888565b600061182c83612451565b600281015460018201548254929350909182851061185c5760405162461bcd60e51b81526004016107c4906158bd565b600061187a611873670de0b6b3a7640000856159ec565b839061249c565b60028601879055905060006118996118928887615b2e565b83906124b8565b90506118a5818361249c565b6118af90856159ec565b866001018190555080609f60008282546118c991906159ec565b925050819055508060a060008282546118e29190615b2e565b90915550505050505050505050565b60a4546040805163d6d75f5160e01b815290516000926001600160a01b03169163d6d75f51916004808301926020929190829003018186803b15801561193657600080fd5b505afa15801561194a573d6000803e3d6000fd5b505050506040513d601f19601f8201168201806040525081019061196e91906152e8565b905090565b600061197d6118f1565b6001600160a01b031663e9cbd8226040518163ffffffff1660e01b815260040160206040518083038186803b15801561193657600080fd5b6033546001600160a01b031633146119df5760405162461bcd60e51b81526004016107c490615888565b6001600160a01b0381163b611a065760405162461bcd60e51b81526004016107c490615982565b611a0e6118f1565b60405163761c543160e11b81526001600160a01b038381166004830152919091169063ec38a86290602401600060405180830381600087803b158015611a5357600080fd5b505af1158015611a67573d6000803e3d6000fd5b5050505060405161082590726d6f6e65794d61726b65742e7265776172647360681b815260130190565b6033546001600160a01b03163314611abb5760405162461bcd60e51b81526004016107c490615888565b6001600160a01b0381163b611ae25760405162461bcd60e51b81526004016107c490615982565b60a480546001600160a01b0319166001600160a01b0383161790556040516d696e7465726573744f7261636c6560901b8152600e01610825565b60008060026001541415611b425760405162461bcd60e51b81526004016107c49061594b565b6002600181905550611b673385856000604051806020016040528060008152506122e2565b600180556001600160401b03919091169590945092505050565b6000806000676765c793fa10079d601b1b609b5485611ba09190615b0f565b611baa9190615a04565b60a154909150600081831115611bc757611bc48284615b2e565b90505b6000611bd16118f1565b6001600160a01b031663579f07b0886040518263ffffffff1660e01b8152600401611bfe91815260200190565b60206040518083038186803b158015611c1657600080fd5b505afa158015611c2a573d6000803e3d6000fd5b505050506040513d601f19601f82011682018060405250810190611c4e9190615495565b905060008260a054609f54609e54611c6691906159ec565b611c7091906159ec565b611c7a91906159ec565b9050808210611c985760009650611c918183615b2e565b9550611ca9565b60019650611ca68282615b2e565b95505b5050505050915091565b6000611cc1858585856124c4565b9050611ccd85846129d2565b949350505050565b600080600080611ce788888888612a73565b92965090945092509050611cfb88836129d2565b945094509450949050565b600080611d168888888787612fb6565b9092509050611d26888887613562565b965096945050505050565b6000806000806000611d458a8a8a8a6135fe565b9350935093509350611d788a611d5a8b612451565b60040154600160401b90046001600160401b0316868686868c613bc5565b9a9950505050505050505050565b6033546001600160a01b03163314611db05760405162461bcd60e51b81526004016107c490615888565b5050565b6040516001600160a01b03831660248201526044810182905261097890849063a9059cbb60e01b906064015b60408051601f198184030181529190526020810180516001600160e01b03166001600160e01b031990931692909217909152613f50565b600054610100900460ff16611e325760005460ff1615611e36565b303b155b611e525760405162461bcd60e51b81526004016107c49061583a565b600054610100900460ff16158015611e74576000805461ffff19166101011790555b611e7c614022565b611e84614053565b60a280546001600160a01b03199081166001600160a01b038a81169190911790925560a38054821689841617905560a48054821688841617905560a58054821687841617905560a68054821686841617905560a78054909116918416919091179055609c805467ffffffffffffffff19166001600160401b038b16179055609d889055801561128b576000805461ff0019169055505050505050505050565b600080611f2f84614095565b600181015460a65460405163bd85b03960e01b81526001600160401b038816600482015292935090916000916001600160a01b03169063bd85b0399060240160206040518083038186803b158015611f8657600080fd5b505afa158015611f9a573d6000803e3d6000fd5b505050506040513d601f19601f82011682018060405250810190611fbe9190615495565b90506000600160801b846002015483611fd79190615b0f565b611fe19190615a04565b905082611ff9676765c793fa10079d601b1b83615b0f565b6120039190615a04565b86612019676765c793fa10079d601b1b84615b0f565b6120239190615a04565b609b5461203091906159ec565b61203a9190615b2e565b609b556001840186905580836120508883615b0f565b61205a9190615a04565b6120649190615b2e565b9450505050600082111561229757600061207c611973565b90506000816001600160a01b031663313ce5676040518163ffffffff1660e01b815260040160206040518083038186803b1580156120b957600080fd5b505afa1580156120cd573d6000803e3d6000fd5b505050506040513d601f19601f820116820180604052508101906120f191906156fb565b6120ff9060ff16600a615a67565b90506121106402540be40082615a04565b8411156122445761211f6118f1565b6001600160a01b0316632e1a7d4d856040518263ffffffff1660e01b815260040161214c91815260200190565b602060405180830381600087803b15801561216657600080fd5b505af115801561217a573d6000803e3d6000fd5b505050506040513d601f19601f8201168201806040525081019061219e9190615495565b9350831561223f5760a6546121c0906001600160a01b038481169116866140e0565b60a6546040516316f6849d60e31b81526001600160401b03881660048201526001600160a01b038481166024830152604482018790529091169063b7b424e890606401600060405180830381600087803b15801561221d57600080fd5b505af1158015612231573d6000803e3d6000fd5b5050505061223f86856141d8565b612294565b60408051600080825260208201526001600160401b038816917f8f0a3cf13ab42f1ec8d1e3df9aa7f0b3219995863af01088afec4c3fef43f79c910160405180910390a260009350505050611579565b50505b60408051838152600060208201526001600160401b038616917f8f0a3cf13ab42f1ec8d1e3df9aa7f0b3219995863af01088afec4c3fef43f79c910160405180910390a25092915050565b60008060006122f8888860001960006001611d31565b905061230988828860018989611d06565b60405191945092506001600160401b0380851691908916906001600160a01b038b16907fa1784acef38e256a50f87b9b937145b9d8294956f1f444d097b9f34217e7291490600090a4509550959350505050565b60606001600160a01b0383163b6123c55760405162461bcd60e51b815260206004820152602660248201527f416464726573733a2064656c65676174652063616c6c20746f206e6f6e2d636f6044820152651b9d1c9858dd60d21b60648201526084016107c4565b600080846001600160a01b0316846040516123e09190615748565b600060405180830381855af49150503d806000811461241b576040519150601f19603f3d011682016040523d82523d6000602084013e612420565b606091505b50915091506124488282604051806060016040528060278152602001615bf16027913961438b565b95945050505050565b60006099612460600184615b45565b6001600160401b03168154811061248757634e487b7160e01b600052603260045260246000fd5b90600052602060002090600502019050919050565b60006124b183670de0b6b3a7640000846143c4565b9392505050565b60006124b183836144a0565b6000806124d085612451565b60a5546040516331a9108f60e11b81526001600160401b03881660048201529192506001600160a01b0388811692911690636352211e9060240160206040518083038186803b15801561252257600080fd5b505afa158015612536573d6000803e3d6000fd5b505050506040513d601f19601f8201168201806040525081019061255a91906152e8565b6001600160a01b03161461259c5760405162461bcd60e51b81526020600482015260096024820152682727aa2fa7aba722a960b91b60448201526064016107c4565b60048101546000906125b89042906001600160401b0316615b2e565b90506125c48582611668565b92506000831180156125d65750838310155b6126115760405162461bcd60e51b815260206004820152600c60248201526b10905117d2539511549154d560a21b60448201526064016107c4565b60a25460405163cf27fa5960e01b8152306004820152602481018590526000916001600160a01b03169063cf27fa599060440160206040518083038186803b15801561265c57600080fd5b505afa158015612670573d6000803e3d6000fd5b505050506040513d601f19601f820116820180604052508101906126949190615495565b90506126a08185615b2e565b600184015490945060006126c76126bf670de0b6b3a7640000846159ec565b86549061249c565b90506126d386896159ec565b8560000160008282546126e691906159ec565b909155506126f6905081896159ec565b6127008383615b0f565b61271288670de0b6b3a7640000615b0f565b61271c91906159ec565b6127269190615a04565b600186015561273581896159ec565b60028601546127449083615b0f565b61275685670de0b6b3a7640000615b0f565b61276091906159ec565b61276a9190615a04565b600286015560006127796118f1565b6001600160a01b03166321c261206040518163ffffffff1660e01b8152600401602060405180830381600087803b1580156127b357600080fd5b505af11580156127c7573d6000803e3d6000fd5b505050506040513d601f19601f820116820180604052508101906127eb9190615495565b612800676765c793fa10079d601b1b8b615b0f565b61280a9190615a04565b6003870154612824676765c793fa10079d601b1b85615b0f565b61282e9190615a04565b61283891906159ec565b905080676765c793fa10079d601b1b612851848c6159ec565b61285b9190615b0f565b6128659190615a04565b866003018190555088609e600082825461287f91906159ec565b909155505060a854801580612896575080609e5411155b6128c85760405162461bcd60e51b815260206004820152600360248201526204341560ec1b60448201526064016107c4565b5086609f60008282546128db91906159ec565b925050819055508360a060008282546128f491906159ec565b9091555050604080518a8152602081018990529081018590526001600160401b038b16906001600160a01b038d16907f3cfdfbe5c59b104993c5bb7a19605a181c358415effb11a8903c7168f3948f4f9060600160405180910390a360a754604051634452179160e11b81526001600160401b038c16600482015260248101849052604481018b90526001600160a01b03909116906388a42f2290606401600060405180830381600087803b1580156129ac57600080fd5b505af11580156129c0573d6000803e3d6000fd5b50505050505050505050949350505050565b60006129dc611973565b90506129f36001600160a01b038216843085614562565b60006129fd6118f1565b9050612a136001600160a01b03831682856140e0565b60405163b6b55f2560e01b8152600481018490526001600160a01b0382169063b6b55f2590602401600060405180830381600087803b158015612a5557600080fd5b505af1158015612a69573d6000803e3d6000fd5b5050505050505050565b6000806000806000612a8488612451565b6004810154600160401b90046001600160401b0316955090506000612aa76118f1565b6001600160a01b03166321c261206040518163ffffffff1660e01b8152600401602060405180830381600087803b158015612ae157600080fd5b505af1158015612af5573d6000803e3d6000fd5b505050506040513d601f19601f82011682018060405250810190612b199190615495565b82549091506000612b2a8b8361459a565b90506000612b50670de0b6b3a76400008660010154612b4991906159ec565b849061249c565b90506001600160401b0389161580612b725750612b6c89614095565b60020154155b15612d16576001600160401b03421115612b9e5760405162461bcd60e51b81526004016107c4906158de565b604080516080810182526001600160401b03808f16825242811660208301908152928201878152600160801b60608401908152609a80546001810182556000829052945160039095027f44da158ba27f9252712a74ff6a55c5d531f69609f1f6e7f17c4443a8e2089be48101805497518616600160401b026001600160801b0319909816968616969096179690961790945590517f44da158ba27f9252712a74ff6a55c5d531f69609f1f6e7f17c4443a8e2089be5850155517f44da158ba27f9252712a74ff6a55c5d531f69609f1f6e7f17c4443a8e2089be690930192909255541115612c9e5760405162461bcd60e51b81526004016107c4906158de565b609a546004860180546001600160401b03808416600160401b0267ffffffffffffffff60401b1983168117909355929b50600092612ce89285926106f29242928116911617615b2e565b9050808c1115612cf657809b505b80612d018d85615b0f565b612d0b9190615a04565b965086985050612e59565b612d208985611f23565b506000612d2c8a614095565b6002015460a65460405163bd85b03960e01b81526001600160401b038d166004820152919250600091600160801b9184916001600160a01b039091169063bd85b0399060240160206040518083038186803b158015612d8a57600080fd5b505afa158015612d9e573d6000803e3d6000fd5b505050506040513d601f19601f82011682018060405250810190612dc29190615495565b612dcc9190615b0f565b612dd69190615a04565b612de09085615b2e565b90506000612e1585612df28487615b0f565b612dfc9190615a04565b60048a01546106f29042906001600160401b0316615b2e565b9050808e1115612e2357809d505b80612e2e8f84615b0f565b612e389190615a04565b985082612e49600160801b8b615b0f565b612e539190615a04565b9a505050505b50505086831015612e925760405162461bcd60e51b815260206004820152600360248201526226a4a760e91b60448201526064016107c4565b60a654604051630ab714fb60e11b81526001600160a01b038c811660048301526001600160401b0389166024830152604482018890529091169063156e29f690606401600060405180830381600087803b158015612eef57600080fd5b505af1158015612f03573d6000803e3d6000fd5b5050505080676765c793fa10079d601b1b84612f1f9190615b0f565b612f299190615a04565b609b6000828254612f3a91906159ec565b925050819055508260a16000828254612f5391906159ec565b909155505060408051898152602081018790526001600160401b038816916001600160a01b038d16917e041ad888f8f0041ca5438a2a667df2a6a90adb28eaf8ec67152459058415ec910160405180910390a38793505050945094509450949050565b600080609d54861015612ff85760405162461bcd60e51b815260206004820152600a60248201526910905117d05353d5539560b21b60448201526064016107c4565b600061300d426001600160401b038816615b2e565b609c549091506001600160401b03168111156130565760405162461bcd60e51b81526020600482015260086024820152674241445f54494d4560c01b60448201526064016107c4565b6130608782611668565b91506000821180156130725750848210155b6130ad5760405162461bcd60e51b815260206004820152600c60248201526b10905117d2539511549154d560a21b60448201526064016107c4565b60a25460405163cf27fa5960e01b8152306004820152602481018490526000916001600160a01b03169063cf27fa599060440160206040518083038186803b1580156130f857600080fd5b505afa15801561310c573d6000803e3d6000fd5b505050506040513d601f19601f820116820180604052508101906131309190615495565b905061313c8184615b2e565b925060996040518060c00160405280858b61315791906159ec565b8152602001613166868c61249c565b8152602001613175848c61249c565b815260a4546040805163d6d75f5160e01b815290516020938401936001600160a01b039093169263d6d75f519260048082019391829003018186803b1580156131bd57600080fd5b505afa1580156131d1573d6000803e3d6000fd5b505050506040513d601f19601f820116820180604052508101906131f591906152e8565b6001600160a01b03166321c261206040518163ffffffff1660e01b8152600401602060405180830381600087803b15801561322f57600080fd5b505af1158015613243573d6000803e3d6000fd5b505050506040513d601f19601f820116820180604052508101906132679190615495565b81526001600160401b03808b166020808401919091526000604093840181905285546001818101885596825290829020855160059092020190815590840151948101949094559082015160028401556060820151600384015560808201516004909301805460a0909301518216600160401b026001600160801b0319909316938216939093179190911790915560995411156133155760405162461bcd60e51b81526004016107c4906158de565b609980549050935087609e600082825461332f91906159ec565b909155505060a854801580613346575080609e5411155b6133785760405162461bcd60e51b815260206004820152600360248201526204341560ec1b60448201526064016107c4565b5082609f600082825461338b91906159ec565b925050819055508060a060008282546133a491906159ec565b909155505084516134225760a5546040516340c10f1960e01b81526001600160a01b038b811660048301526001600160401b0387166024830152909116906340c10f1990604401600060405180830381600087803b15801561340557600080fd5b505af1158015613419573d6000803e3d6000fd5b50505050613489565b60a5546040516334ff261960e21b81526001600160a01b039091169063d3fc986490613456908c9088908a90600401615764565b600060405180830381600087803b15801561347057600080fd5b505af1158015613484573d6000803e3d6000fd5b505050505b60408051898152602081018590529081018290526001600160401b0388811660608301528516906001600160a01b038b16907f61431584ca96282c2c6748c4dabd382bc28bde7792a7fa3c3668927bedf4446f9060800160405180910390a360a754604051631a3ee6b160e01b81526001600160a01b038b811660048301526001600160401b038716602483015290911690631a3ee6b190604401600060405180830381600087803b15801561353e57600080fd5b505af1158015613552573d6000803e3d6000fd5b5050505050509550959350505050565b80610978576000613571611973565b90506135886001600160a01b038216853086614562565b60006135926118f1565b90506135a86001600160a01b03831682866140e0565b60405163b6b55f2560e01b8152600481018590526001600160a01b0382169063b6b55f2590602401600060405180830381600087803b1580156135ea57600080fd5b505af115801561128b573d6000803e3d6000fd5b600080600080600086116136415760405162461bcd60e51b815260206004820152600a60248201526910905117d05353d5539560b21b60448201526064016107c4565b600061364c88612451565b9050851561369e5760048101546001600160401b031642106136995760405162461bcd60e51b81526020600482015260066024820152654d415455524560d01b60448201526064016107c4565b6136e6565b60048101546001600160401b03164210156136e65760405162461bcd60e51b8152602060048201526008602482015267494d4d415455524560c01b60448201526064016107c4565b60a5546040516331a9108f60e11b81526001600160401b038a1660048201526001600160a01b038b8116921690636352211e9060240160206040518083038186803b15801561373457600080fd5b505afa158015613748573d6000803e3d6000fd5b505050506040513d601f19601f8201168201806040525081019061376c91906152e8565b6001600160a01b0316146137ae5760405162461bcd60e51b81526020600482015260096024820152682727aa2fa7aba722a960b91b60448201526064016107c4565b8054808811156137bc578097505b506001810154600282015460006137e56137de670de0b6b3a7640000856159ec565b8b9061249c565b90506000896137fd576137f8828c615b2e565b613800565b60005b905061380c81836159ec565b98505088156138be5760a2546040516376dffb8f60e01b81523060048201526001600160401b038d166024820152604481018a90526000916001600160a01b0316906376dffb8f9060640160206040518083038186803b15801561386f57600080fd5b505afa158015613883573d6000803e3d6000fd5b505050506040513d601f19601f820116820180604052508101906138a79190615495565b97508790506138b6818a615b2e565b9850506138cb565b6138c881836124b8565b96505b80609e60008282546138dd9190615b2e565b909155506138ed9050818b615b2e565b609f60008282546138fe9190615b2e565b9091555061390e905081836124b8565b60a0600082825461391f9190615b2e565b90915550506004840154600160401b90046001600160401b03168015613a7d57600061394a82614095565b600281015460a65460405163bd85b03960e01b81526001600160401b0386166004820152929350600092600160801b92916001600160a01b03169063bd85b0399060240160206040518083038186803b1580156139a657600080fd5b505afa1580156139ba573d6000803e3d6000fd5b505050506040513d601f19601f820116820180604052508101906139de9190615495565b6139e89190615b0f565b6139f29190615a04565b90506000613a048f896000015461459a565b90506000613a1286886124b8565b8f613a1d91906159ec565b9050613a2983826159ec565b8211613a685780821015613a3e576000613a62565b82613a498284615b2e565b8560020154613a589190615b0f565b613a629190615a04565b60028501555b5050613a7583828e6145f9565b909950975050505b6000613aa4613a94670de0b6b3a7640000876159ec565b613a9d8f612451565b549061249c565b905060a760009054906101000a90046001600160a01b03166001600160a01b03166388a42f228e8360006040518463ffffffff1660e01b8152600401613b08939291906001600160401b039390931683526020830191909152604082015260600190565b600060405180830381600087803b158015613b2257600080fd5b505af1158015613b36573d6000803e3d6000fd5b50505050508a613b458d612451565b8054600090613b55908490615b2e565b925050819055508915158c6001600160401b03168e6001600160a01b03167fc915235dea7625ad78e3b510156c53e55606173e23b24de4bfdb0c7b9952065f8e8c604051613bad929190918252602082015260400190565b60405180910390a45050505050945094509450949050565b600080613bd0611973565b90508215613cb6576000613be26118f1565b6001600160a01b0316632e1a7d4d613bfa888a6159ec565b6040518263ffffffff1660e01b8152600401613c1891815260200190565b602060405180830381600087803b158015613c3257600080fd5b505af1158015613c46573d6000803e3d6000fd5b505050506040513d601f19601f82011682018060405250810190613c6a9190615495565b9050613c7686886159ec565b8110613c8d57613c868682615b2e565b9650613cad565b868110613ca557613c9e8782615b2e565b9550613cad565b809650600095505b87925050613dff565b6000613cc06118f1565b6001600160a01b0316632e1a7d4d87613cd98a8c6159ec565b613ce391906159ec565b6040518263ffffffff1660e01b8152600401613d0191815260200190565b602060405180830381600087803b158015613d1b57600080fd5b505af1158015613d2f573d6000803e3d6000fd5b505050506040513d601f19601f82011682018060405250810190613d539190615495565b889350905085613d6388856159ec565b613d6d91906159ec565b8110613d8f5785613d7e8983615b2e565b613d889190615b2e565b9650613de3565b613d9987896159ec565b8110613dbb5786613daa8983615b2e565b613db49190615b2e565b9550613de3565b878110613dd757613dcc8882615b2e565b965060009550613de3565b80925060009650600095505b8215613dfd57613dfd6001600160a01b0383168b85611db4565b505b8515613e945760a254604080516338af3eed60e01b81529051613e94926001600160a01b0316916338af3eed916004808301926020929190829003018186803b158015613e4b57600080fd5b505afa158015613e5f573d6000803e3d6000fd5b505050506040513d601f19601f82011682018060405250810190613e8391906152e8565b6001600160a01b0383169088611db4565b8415613f445760a654613eb4906001600160a01b038381169116876140e0565b60a6546040516316f6849d60e31b81526001600160401b038a1660048201526001600160a01b038381166024830152604482018890529091169063b7b424e890606401600060405180830381600087803b158015613f1157600080fd5b505af1158015613f25573d6000803e3d6000fd5b5050505083851115613f4457613f4488613f3f8688615b2e565b6141d8565b50979650505050505050565b6000613fa5826040518060400160405280602081526020017f5361666545524332303a206c6f772d6c6576656c2063616c6c206661696c6564815250856001600160a01b03166149bb9092919063ffffffff16565b8051909150156109785780806020019051810190613fc391906153f5565b6109785760405162461bcd60e51b815260206004820152602a60248201527f5361666545524332303a204552433230206f7065726174696f6e20646964206e6044820152691bdd081cdd58d8d9595960b21b60648201526084016107c4565b600054610100900460ff166140495760405162461bcd60e51b81526004016107c490615900565b6140516149ca565b565b603380546001600160a01b031916339081179091556040516000907f8be0079c531659141344cd1fd0a4f28419497f9722a3daafe3b4186f6b6457e0908290a3565b6000609a6140a4600184615b45565b6001600160401b0316815481106140cb57634e487b7160e01b600052603260045260246000fd5b90600052602060002090600302019050919050565b604051636eb1769f60e11b81523060048201526001600160a01b0383811660248301526000919085169063dd62ed3e9060440160206040518083038186803b15801561412b57600080fd5b505afa15801561413f573d6000803e3d6000fd5b505050506040513d601f19601f820116820180604052508101906141639190615495565b9050801561419b576040516001600160a01b03841660248201526000604482015261419b90859063095ea7b360e01b90606401611de0565b6141d28463095ea7b360e01b856141b286866159ec565b6040516001600160a01b0390921660248301526044820152606401611de0565b50505050565b60006141e383614095565b80549091506000906141fd906001600160401b0316612451565b600401546001600160401b03169050428110156142ce578154600160401b90046001600160401b0316818110156142c857600061423a8242615b2e565b6142448385615b2e565b61424e9087615b0f565b6142589190615a04565b60a754604051634999011360e11b81526001600160401b0389166004820152602481018390529192506001600160a01b031690639332022690604401600060405180830381600087803b1580156142ae57600080fd5b505af11580156142c2573d6000803e3d6000fd5b50505050505b5061433c565b60a754604051634999011360e11b81526001600160401b0386166004820152602481018590526001600160a01b0390911690639332022690604401600060405180830381600087803b15801561432357600080fd5b505af1158015614337573d6000803e3d6000fd5b505050505b6001600160401b034211156143635760405162461bcd60e51b81526004016107c4906158de565b50805467ffffffffffffffff60401b1916600160401b426001600160401b0316021790555050565b6060831561439a5750816124b1565b8251156143aa5782518084602001fd5b8160405162461bcd60e51b81526004016107c49190615827565b60008080600019858709858702925082811083820303915050806000141561440d5783828161440357634e487b7160e01b600052601260045260246000fd5b04925050506124b1565b83811061443757604051631dcf306360e21b815260048101829052602481018590526044016107c4565b60008486880960026001871981018816978890046003810283188082028403028082028403028082028403028082028403028082028403029081029092039091026000889003889004909101858311909403939093029303949094049190911702949350505050565b60008080600019848609848602925082811083820303915050670de0b6b3a764000081106144e45760405163698d9a0160e11b8152600481018290526024016107c4565b600080670de0b6b3a76400008688099150506706f05b59d3b1ffff81118261451e5780670de0b6b3a7640000850401945050505050611579565b620400008285030493909111909103600160ee1b02919091177faccb18165bd6fe31ae1cf318dc5b51eee0e1ba569b88cd74c1773b91fac106690201905092915050565b6040516001600160a01b03808516602483015283166044820152606481018290526141d29085906323b872dd60e01b90608401611de0565b6000806145a684612451565b9050600081600101549050612448670de0b6b3a76400008360020154836145cd91906159ec565b6145d791906159ec565b6145f36145ec670de0b6b3a7640000856159ec565b879061249c565b906124b8565b600080600061460786614095565b600281015460a65460405163bd85b03960e01b81526001600160401b038a166004820152929350600092600160801b92916001600160a01b03169063bd85b0399060240160206040518083038186803b15801561466357600080fd5b505afa158015614677573d6000803e3d6000fd5b505050506040513d601f19601f8201168201806040525081019061469b9190615495565b6146a59190615b0f565b6146af9190615a04565b600183015490915060006146c16118f1565b6001600160a01b03166321c261206040518163ffffffff1660e01b8152600401602060405180830381600087803b1580156146fb57600080fd5b505af115801561470f573d6000803e3d6000fd5b505050506040513d601f19601f820116820180604052508101906147339190615495565b905060008161474d676765c793fa10079d601b1b86615b0f565b6147579190615a04565b9050600083614771676765c793fa10079d601b1b8c615b0f565b61477b9190615a04565b90508082609b5461478c91906159ec565b106147b2578082609b546147a091906159ec565b6147aa9190615b2e565b609b556147b8565b6000609b555b600186018390556147c9858b615b2e565b60a160008282546147da9190615b2e565b909155508a9050846147ec8583615b0f565b6147f69190615a04565b6148009190615b2e565b975050505050841561496d578154600090614823906001600160401b0316612451565b6001810154600282015460a454604080516385b3a93160e01b81528151959650939492936000936001600160a01b03909316926385b3a9319260048084019391929182900301818787803b15801561487a57600080fd5b505af115801561488e573d6000803e3d6000fd5b505050506040513d601f19601f820116820180604052508101906148b29190615411565b60048601549092506149049150670de0b6b3a7640000906148f0906148e19042906001600160401b0316615b2e565b6148eb9085615b0f565b6149f7565b6148fa9190615b2e565b6145f3878d615b2e565b9650600061494761491584866159ec565b6145f38561492b88670de0b6b3a76400006159ec565b61493591906159ec565b898f6149419190615b2e565b9061249c565b9050808811156149575780614959565b875b9750614965888a6159ec565b985050505050505b60408051858152602081018590526001600160401b038916917f8f0a3cf13ab42f1ec8d1e3df9aa7f0b3219995863af01088afec4c3fef43f79c910160405180910390a25050935093915050565b6060611ccd8484600085614a3d565b600054610100900460ff166149f15760405162461bcd60e51b81526004016107c490615900565b60018055565b6000680a688906bd8b0000008210614a2557604051634a4f26f160e01b8152600481018390526024016107c4565b670de0b6b3a7640000604083901b046124b181614b6e565b606082471015614a9e5760405162461bcd60e51b815260206004820152602660248201527f416464726573733a20696e73756666696369656e742062616c616e636520666f6044820152651c8818d85b1b60d21b60648201526084016107c4565b6001600160a01b0385163b614af55760405162461bcd60e51b815260206004820152601d60248201527f416464726573733a2063616c6c20746f206e6f6e2d636f6e747261637400000060448201526064016107c4565b600080866001600160a01b03168587604051614b119190615748565b60006040518083038185875af1925050503d8060008114614b4e576040519150601f19603f3d011682016040523d82523d6000602084013e614b53565b606091505b5091509150614b6382828661438b565b979650505050505050565b600160bf1b678000000000000000821615614b925768016a09e667f3bcc9090260401c5b674000000000000000821615614bb1576801306fe0a31b7152df0260401c5b672000000000000000821615614bd0576801172b83c7d517adce0260401c5b671000000000000000821615614bef5768010b5586cf9890f62a0260401c5b670800000000000000821615614c0e576801059b0d31585743ae0260401c5b670400000000000000821615614c2d57680102c9a3e778060ee70260401c5b670200000000000000821615614c4c5768010163da9fb33356d80260401c5b670100000000000000821615614c6b57680100b1afa5abcbed610260401c5b6680000000000000821615614c895768010058c86da1c09ea20260401c5b6640000000000000821615614ca7576801002c605e2e8cec500260401c5b6620000000000000821615614cc557680100162f3904051fa10260401c5b6610000000000000821615614ce3576801000b175effdc76ba0260401c5b6608000000000000821615614d0157680100058ba01fb9f96d0260401c5b6604000000000000821615614d1f5768010002c5cc37da94920260401c5b6602000000000000821615614d3d576801000162e525ee05470260401c5b6601000000000000821615614d5b5768010000b17255775c040260401c5b65800000000000821615614d78576801000058b91b5bc9ae0260401c5b65400000000000821615614d9557680100002c5c89d5ec6d0260401c5b65200000000000821615614db25768010000162e43f4f8310260401c5b65100000000000821615614dcf57680100000b1721bcfc9a0260401c5b65080000000000821615614dec5768010000058b90cf1e6e0260401c5b65040000000000821615614e09576801000002c5c863b73f0260401c5b65020000000000821615614e2657680100000162e430e5a20260401c5b65010000000000821615614e43576801000000b1721835510260401c5b648000000000821615614e5f57680100000058b90c0b490260401c5b644000000000821615614e7b5768010000002c5c8601cc0260401c5b642000000000821615614e97576801000000162e42fff00260401c5b641000000000821615614eb35768010000000b17217fbb0260401c5b640800000000821615614ecf576801000000058b90bfce0260401c5b640400000000821615614eeb57680100000002c5c85fe30260401c5b640200000000821615614f075768010000000162e42ff10260401c5b640100000000821615614f2357680100000000b17217f80260401c5b6380000000821615614f3e5768010000000058b90bfc0260401c5b6340000000821615614f59576801000000002c5c85fe0260401c5b6320000000821615614f7457680100000000162e42ff0260401c5b6310000000821615614f8f576801000000000b17217f0260401c5b6308000000821615614faa57680100000000058b90c00260401c5b6304000000821615614fc55768010000000002c5c8600260401c5b6302000000821615614fe0576801000000000162e4300260401c5b6301000000821615614ffb5768010000000000b172180260401c5b62800000821615615015576801000000000058b90c0260401c5b6240000082161561502f57680100000000002c5c860260401c5b622000008216156150495768010000000000162e430260401c5b6210000082161561506357680100000000000b17210260401c5b6208000082161561507d5768010000000000058b910260401c5b62040000821615615097576801000000000002c5c80260401c5b620200008216156150b157680100000000000162e40260401c5b620100008216156150cb576801000000000000b1720260401c5b6180008216156150e457680100000000000058b90260401c5b6140008216156150fd5768010000000000002c5d0260401c5b612000821615615116576801000000000000162e0260401c5b61100082161561512f5768010000000000000b170260401c5b610800821615615148576801000000000000058c0260401c5b61040082161561516157680100000000000002c60260401c5b61020082161561517a57680100000000000001630260401c5b61010082161561519357680100000000000000b10260401c5b60808216156151ab57680100000000000000590260401c5b60408216156151c3576801000000000000002c0260401c5b60208216156151db57680100000000000000160260401c5b60108216156151f3576801000000000000000b0260401c5b600882161561520b57680100000000000000060260401c5b600482161561522357680100000000000000030260401c5b600282161561523b57680100000000000000010260401c5b600182161561525357680100000000000000010260401c5b670de0b6b3a76400000260409190911c60bf031c90565b60008083601f84011261527b578182fd5b5081356001600160401b03811115615291578182fd5b6020830191508360208285010111156152a957600080fd5b9250929050565b80356001600160401b03811681146152c757600080fd5b919050565b6000602082840312156152dd578081fd5b81356124b181615bca565b6000602082840312156152f9578081fd5b81516124b181615bca565b60008060408385031215615316578081fd5b823561532181615bca565b9150602083013561533181615bca565b809150509250929050565b600080600060608486031215615350578081fd5b833561535b81615bca565b9250602084013561536b81615be2565b9150604084013561537b81615be2565b809150509250925092565b60008060208385031215615398578182fd5b82356001600160401b03808211156153ae578384fd5b818501915085601f8301126153c1578384fd5b8135818111156153cf578485fd5b8660208260051b85010111156153e3578485fd5b60209290920196919550909350505050565b600060208284031215615406578081fd5b81516124b181615be2565b60008060408385031215615423578182fd5b825161542e81615be2565b6020939093015192949293505050565b60008060208385031215615450578182fd5b82356001600160401b03811115615465578283fd5b6154718582860161526a565b90969095509350505050565b60006020828403121561548e578081fd5b5035919050565b6000602082840312156154a6578081fd5b5051919050565b600080604083850312156154bf578182fd5b50508035926020909101359150565b600080604083850312156154e0578182fd5b823591506154f0602084016152b0565b90509250929050565b600080600080600060808688031215615510578283fd5b85359450615520602087016152b0565b93506040860135925060608601356001600160401b03811115615541578182fd5b61554d8882890161526a565b969995985093965092949392505050565b60006020828403121561556f578081fd5b6124b1826152b0565b6000806040838503121561558a578182fd5b615593836152b0565b946020939093013593505050565b600080600080600080600080610100898b0312156155bd578586fd5b6155c6896152b0565b97506020890135965060408901356155dd81615bca565b955060608901356155ed81615bca565b945060808901356155fd81615bca565b935060a089013561560d81615bca565b925060c089013561561d81615bca565b915060e089013561562d81615bca565b809150509295985092959890939650565b600080600060608486031215615652578081fd5b61565b846152b0565b925060208401359150604084013561537b81615be2565b600080600060608486031215615686578081fd5b61568f846152b0565b95602085013595506040909401359392505050565b600080604083850312156156b6578182fd5b6156bf836152b0565b91506154f0602084016152b0565b6000806000806000608086880312156156e4578283fd5b6156ed866152b0565b9450615520602087016152b0565b60006020828403121561570c578081fd5b815160ff811681146124b1578182fd5b60008151808452615734816020860160208601615b6d565b601f01601f19169290920160200192915050565b6000825161575a818460208701615b6d565b9190910192915050565b6001600160a01b03841681526001600160401b03831660208201526060604082018190526000906124489083018461571c565b6000602080830181845280855180835260408601915060408160051b8701019250838701855b828110156157eb57603f198886030184526157d985835161571c565b945092850192908501906001016157bd565b5092979650505050505050565b60208152816020820152818360408301376000818301604090810191909152601f909201601f19160101919050565b6020815260006124b1602083018461571c565b6020808252602e908201527f496e697469616c697a61626c653a20636f6e747261637420697320616c72656160408201526d191e481a5b9a5d1a585b1a5e995960921b606082015260800190565b6020808252818101527f4f776e61626c653a2063616c6c6572206973206e6f7420746865206f776e6572604082015260600190565b60208082526007908201526610905117d5905360ca1b604082015260600190565b6020808252600890820152674f564552464c4f5760c01b604082015260600190565b6020808252602b908201527f496e697469616c697a61626c653a20636f6e7472616374206973206e6f74206960408201526a6e697469616c697a696e6760a81b606082015260800190565b6020808252601f908201527f5265656e7472616e637947756172643a207265656e7472616e742063616c6c00604082015260600190565b6020808252600c908201526b1393d517d0d3d395149050d560a21b604082015260600190565b6000808335601e198436030181126159be578283fd5b8301803591506001600160401b038211156159d7578283fd5b6020019150368190038213156152a957600080fd5b600082198211156159ff576159ff615bb4565b500190565b600082615a1f57634e487b7160e01b81526012600452602481fd5b500490565b600181815b80851115615a5f578160001904821115615a4557615a45615bb4565b80851615615a5257918102915b93841c9390800290615a29565b509250929050565b60006124b18383600082615a7d57506001611579565b81615a8a57506000611579565b8160018114615aa05760028114615aaa57615ac6565b6001915050611579565b60ff841115615abb57615abb615bb4565b50506001821b611579565b5060208310610133831016604e8410600b8410161715615ae9575081810a611579565b615af38383615a24565b8060001904821115615b0757615b07615bb4565b029392505050565b6000816000190483118215151615615b2957615b29615bb4565b500290565b600082821015615b4057615b40615bb4565b500390565b60006001600160401b0383811690831681811015615b6557615b65615bb4565b039392505050565b60005b83811015615b88578181015183820152602001615b70565b838111156141d25750506000910152565b6000600019821415615bad57615bad615bb4565b5060010190565b634e487b7160e01b600052601160045260246000fd5b6001600160a01b0381168114615bdf57600080fd5b50565b8015158114615bdf57600080fdfe416464726573733a206c6f772d6c6576656c2064656c65676174652063616c6c206661696c6564a2646970667358221220894777fc0d36ce8f412697fcf9f75ce7e325a732f32b3ab08aba4d471e1e21e764736f6c63430008040033",
  "linkReferences": {},
  "deployedLinkReferences": {}
}